{
  "contractName": "ArtToken",
  "abi": [
    {
      "inputs": [],
      "stateMutability": "nonpayable",
      "type": "constructor"
    },
    {
      "anonymous": false,
      "inputs": [
        {
          "indexed": true,
          "internalType": "address",
          "name": "owner",
          "type": "address"
        },
        {
          "indexed": true,
          "internalType": "address",
          "name": "approved",
          "type": "address"
        },
        {
          "indexed": true,
          "internalType": "uint256",
          "name": "tokenId",
          "type": "uint256"
        }
      ],
      "name": "Approval",
      "type": "event"
    },
    {
      "anonymous": false,
      "inputs": [
        {
          "indexed": true,
          "internalType": "address",
          "name": "owner",
          "type": "address"
        },
        {
          "indexed": true,
          "internalType": "address",
          "name": "operator",
          "type": "address"
        },
        {
          "indexed": false,
          "internalType": "bool",
          "name": "approved",
          "type": "bool"
        }
      ],
      "name": "ApprovalForAll",
      "type": "event"
    },
    {
      "anonymous": false,
      "inputs": [
        {
          "indexed": true,
          "internalType": "address",
          "name": "from",
          "type": "address"
        },
        {
          "indexed": true,
          "internalType": "address",
          "name": "to",
          "type": "address"
        },
        {
          "indexed": true,
          "internalType": "uint256",
          "name": "tokenId",
          "type": "uint256"
        }
      ],
      "name": "Transfer",
      "type": "event"
    },
    {
      "inputs": [
        {
          "internalType": "uint256",
          "name": "",
          "type": "uint256"
        }
      ],
      "name": "Items",
      "outputs": [
        {
          "internalType": "uint256",
          "name": "id",
          "type": "uint256"
        },
        {
          "internalType": "address",
          "name": "creator",
          "type": "address"
        },
        {
          "internalType": "string",
          "name": "uri",
          "type": "string"
        }
      ],
      "stateMutability": "view",
      "type": "function",
      "constant": true
    },
    {
      "inputs": [
        {
          "internalType": "address",
          "name": "to",
          "type": "address"
        },
        {
          "internalType": "uint256",
          "name": "tokenId",
          "type": "uint256"
        }
      ],
      "name": "approve",
      "outputs": [],
      "stateMutability": "nonpayable",
      "type": "function"
    },
    {
      "inputs": [
        {
          "internalType": "address",
          "name": "owner",
          "type": "address"
        }
      ],
      "name": "balanceOf",
      "outputs": [
        {
          "internalType": "uint256",
          "name": "",
          "type": "uint256"
        }
      ],
      "stateMutability": "view",
      "type": "function",
      "constant": true
    },
    {
      "inputs": [
        {
          "internalType": "uint256",
          "name": "tokenId",
          "type": "uint256"
        }
      ],
      "name": "getApproved",
      "outputs": [
        {
          "internalType": "address",
          "name": "",
          "type": "address"
        }
      ],
      "stateMutability": "view",
      "type": "function",
      "constant": true
    },
    {
      "inputs": [
        {
          "internalType": "address",
          "name": "owner",
          "type": "address"
        },
        {
          "internalType": "address",
          "name": "operator",
          "type": "address"
        }
      ],
      "name": "isApprovedForAll",
      "outputs": [
        {
          "internalType": "bool",
          "name": "",
          "type": "bool"
        }
      ],
      "stateMutability": "view",
      "type": "function",
      "constant": true
    },
    {
      "inputs": [],
      "name": "marketplace",
      "outputs": [
        {
          "internalType": "address",
          "name": "",
          "type": "address"
        }
      ],
      "stateMutability": "view",
      "type": "function",
      "constant": true
    },
    {
      "inputs": [],
      "name": "name",
      "outputs": [
        {
          "internalType": "string",
          "name": "",
          "type": "string"
        }
      ],
      "stateMutability": "view",
      "type": "function",
      "constant": true
    },
    {
      "inputs": [
        {
          "internalType": "uint256",
          "name": "tokenId",
          "type": "uint256"
        }
      ],
      "name": "ownerOf",
      "outputs": [
        {
          "internalType": "address",
          "name": "",
          "type": "address"
        }
      ],
      "stateMutability": "view",
      "type": "function",
      "constant": true
    },
    {
      "inputs": [
        {
          "internalType": "address",
          "name": "from",
          "type": "address"
        },
        {
          "internalType": "address",
          "name": "to",
          "type": "address"
        },
        {
          "internalType": "uint256",
          "name": "tokenId",
          "type": "uint256"
        }
      ],
      "name": "safeTransferFrom",
      "outputs": [],
      "stateMutability": "nonpayable",
      "type": "function"
    },
    {
      "inputs": [
        {
          "internalType": "address",
          "name": "from",
          "type": "address"
        },
        {
          "internalType": "address",
          "name": "to",
          "type": "address"
        },
        {
          "internalType": "uint256",
          "name": "tokenId",
          "type": "uint256"
        },
        {
          "internalType": "bytes",
          "name": "_data",
          "type": "bytes"
        }
      ],
      "name": "safeTransferFrom",
      "outputs": [],
      "stateMutability": "nonpayable",
      "type": "function"
    },
    {
      "inputs": [
        {
          "internalType": "address",
          "name": "operator",
          "type": "address"
        },
        {
          "internalType": "bool",
          "name": "approved",
          "type": "bool"
        }
      ],
      "name": "setApprovalForAll",
      "outputs": [],
      "stateMutability": "nonpayable",
      "type": "function"
    },
    {
      "inputs": [
        {
          "internalType": "bytes4",
          "name": "interfaceId",
          "type": "bytes4"
        }
      ],
      "name": "supportsInterface",
      "outputs": [
        {
          "internalType": "bool",
          "name": "",
          "type": "bool"
        }
      ],
      "stateMutability": "view",
      "type": "function",
      "constant": true
    },
    {
      "inputs": [],
      "name": "symbol",
      "outputs": [
        {
          "internalType": "string",
          "name": "",
          "type": "string"
        }
      ],
      "stateMutability": "view",
      "type": "function",
      "constant": true
    },
    {
      "inputs": [
        {
          "internalType": "uint256",
          "name": "index",
          "type": "uint256"
        }
      ],
      "name": "tokenByIndex",
      "outputs": [
        {
          "internalType": "uint256",
          "name": "",
          "type": "uint256"
        }
      ],
      "stateMutability": "view",
      "type": "function",
      "constant": true
    },
    {
      "inputs": [
        {
          "internalType": "address",
          "name": "owner",
          "type": "address"
        },
        {
          "internalType": "uint256",
          "name": "index",
          "type": "uint256"
        }
      ],
      "name": "tokenOfOwnerByIndex",
      "outputs": [
        {
          "internalType": "uint256",
          "name": "",
          "type": "uint256"
        }
      ],
      "stateMutability": "view",
      "type": "function",
      "constant": true
    },
    {
      "inputs": [],
      "name": "totalSupply",
      "outputs": [
        {
          "internalType": "uint256",
          "name": "",
          "type": "uint256"
        }
      ],
      "stateMutability": "view",
      "type": "function",
      "constant": true
    },
    {
      "inputs": [
        {
          "internalType": "address",
          "name": "from",
          "type": "address"
        },
        {
          "internalType": "address",
          "name": "to",
          "type": "address"
        },
        {
          "internalType": "uint256",
          "name": "tokenId",
          "type": "uint256"
        }
      ],
      "name": "transferFrom",
      "outputs": [],
      "stateMutability": "nonpayable",
      "type": "function"
    },
    {
      "inputs": [
        {
          "internalType": "string",
          "name": "uri",
          "type": "string"
        }
      ],
      "name": "mint",
      "outputs": [
        {
          "internalType": "uint256",
          "name": "",
          "type": "uint256"
        }
      ],
      "stateMutability": "nonpayable",
      "type": "function"
    },
    {
      "inputs": [
        {
          "internalType": "uint256",
          "name": "tokenId",
          "type": "uint256"
        }
      ],
      "name": "tokenURI",
      "outputs": [
        {
          "internalType": "string",
          "name": "",
          "type": "string"
        }
      ],
      "stateMutability": "view",
      "type": "function",
      "constant": true
    },
    {
      "inputs": [
        {
          "internalType": "address",
          "name": "market",
          "type": "address"
        }
      ],
      "name": "setMarketplace",
      "outputs": [],
      "stateMutability": "nonpayable",
      "type": "function"
    },
    {
      "inputs": [
        {
          "internalType": "address payable",
          "name": "sellerId",
          "type": "address"
        },
        {
          "internalType": "address",
          "name": "message",
          "type": "address"
        },
        {
          "internalType": "uint256",
          "name": "tokenId",
          "type": "uint256"
        }
      ],
      "name": "safeTransferForm",
      "outputs": [],
      "stateMutability": "nonpayable",
      "type": "function"
    }
  ],
  "bytecode": "0x60806040523480156200001157600080fd5b506040518060400160405280600881526020017f417274546f6b656e0000000000000000000000000000000000000000000000008152506040518060400160405280600481526020017f4152544b00000000000000000000000000000000000000000000000000000000815250816000908051906020019062000096929190620000b8565b508060019080519060200190620000af929190620000b8565b505050620001cd565b828054620000c69062000197565b90600052602060002090601f016020900481019282620000ea576000855562000136565b82601f106200010557805160ff191683800117855562000136565b8280016001018555821562000136579182015b828111156200013557825182559160200191906001019062000118565b5b50905062000145919062000149565b5090565b5b80821115620001645760008160009055506001016200014a565b5090565b7f4e487b7100000000000000000000000000000000000000000000000000000000600052602260045260246000fd5b60006002820490506001821680620001b057607f821691505b60208210811415620001c757620001c662000168565b5b50919050565b6131ec80620001dd6000396000f3fe608060405234801561001057600080fd5b50600436106101375760003560e01c80634f6ccce7116100b8578063a22cb4651161007c578063a22cb46514610374578063abc8c7af14610390578063b88d4fde146103ae578063c87b56dd146103ca578063d85d3d27146103fa578063e985e9c51461042a57610137565b80634f6ccce7146102aa5780636352211e146102da57806370a082311461030a57806373ad6c2d1461033a57806395d89b411461035657610137565b806318160ddd116100ff57806318160ddd1461020857806323b872dd146102265780632f745c5914610242578063405b1d721461027257806342842e0e1461028e57610137565b806301ffc9a71461013c57806306fdde031461016c578063081812fc1461018a578063095ea7b3146101ba57806317b47cc4146101d6575b600080fd5b61015660048036038101906101519190611f9d565b61045a565b6040516101639190611fe5565b60405180910390f35b6101746104d4565b6040516101819190612099565b60405180910390f35b6101a4600480360381019061019f91906120f1565b610566565b6040516101b1919061215f565b60405180910390f35b6101d460048036038101906101cf91906121a6565b6105eb565b005b6101f060048036038101906101eb91906120f1565b610703565b6040516101ff939291906121f5565b60405180910390f35b6102106107d5565b60405161021d9190612233565b60405180910390f35b610240600480360381019061023b919061224e565b6107e2565b005b61025c600480360381019061025791906121a6565b610842565b6040516102699190612233565b60405180910390f35b61028c600480360381019061028791906122df565b6108e7565b005b6102a860048036038101906102a3919061224e565b6108ec565b005b6102c460048036038101906102bf91906120f1565b61090c565b6040516102d19190612233565b60405180910390f35b6102f460048036038101906102ef91906120f1565b61097d565b604051610301919061215f565b60405180910390f35b610324600480360381019061031f9190612332565b610a2f565b6040516103319190612233565b60405180910390f35b610354600480360381019061034f9190612332565b610ae7565b005b61035e610b2b565b60405161036b9190612099565b60405180910390f35b61038e6004803603810190610389919061238b565b610bbd565b005b610398610bd3565b6040516103a5919061215f565b60405180910390f35b6103c860048036038101906103c39190612500565b610bf9565b005b6103e460048036038101906103df91906120f1565b610c5b565b6040516103f19190612099565b60405180910390f35b610414600480360381019061040f9190612624565b610d4b565b6040516104219190612233565b60405180910390f35b610444600480360381019061043f919061266d565b610e59565b6040516104519190611fe5565b60405180910390f35b60007f780e9d63000000000000000000000000000000000000000000000000000000007bffffffffffffffffffffffffffffffffffffffffffffffffffffffff1916827bffffffffffffffffffffffffffffffffffffffffffffffffffffffff191614806104cd57506104cc82610eed565b5b9050919050565b6060600080546104e3906126dc565b80601f016020809104026020016040519081016040528092919081815260200182805461050f906126dc565b801561055c5780601f106105315761010080835404028352916020019161055c565b820191906000526020600020905b81548152906001019060200180831161053f57829003601f168201915b5050505050905090565b600061057182610fcf565b6105b0576040517f08c379a00000000000000000000000000000000000000000000000000000000081526004016105a790612780565b60405180910390fd5b6004600083815260200190815260200160002060009054906101000a900473ffffffffffffffffffffffffffffffffffffffff169050919050565b60006105f68261097d565b90508073ffffffffffffffffffffffffffffffffffffffff168373ffffffffffffffffffffffffffffffffffffffff161415610667576040517f08c379a000000000000000000000000000000000000000000000000000000000815260040161065e90612812565b60405180910390fd5b8073ffffffffffffffffffffffffffffffffffffffff1661068661103b565b73ffffffffffffffffffffffffffffffffffffffff1614806106b557506106b4816106af61103b565b610e59565b5b6106f4576040517f08c379a00000000000000000000000000000000000000000000000000000000081526004016106eb906128a4565b60405180910390fd5b6106fe8383611043565b505050565b600c6020528060005260406000206000915090508060000154908060010160009054906101000a900473ffffffffffffffffffffffffffffffffffffffff1690806002018054610752906126dc565b80601f016020809104026020016040519081016040528092919081815260200182805461077e906126dc565b80156107cb5780601f106107a0576101008083540402835291602001916107cb565b820191906000526020600020905b8154815290600101906020018083116107ae57829003601f168201915b5050505050905083565b6000600880549050905090565b6107f36107ed61103b565b826110fc565b610832576040517f08c379a000000000000000000000000000000000000000000000000000000000815260040161082990612936565b60405180910390fd5b61083d8383836111da565b505050565b600061084d83610a2f565b821061088e576040517f08c379a0000000000000000000000000000000000000000000000000000000008152600401610885906129c8565b60405180910390fd5b600660008473ffffffffffffffffffffffffffffffffffffffff1673ffffffffffffffffffffffffffffffffffffffff168152602001908152602001600020600083815260200190815260200160002054905092915050565b505050565b61090783838360405180602001604052806000815250610bf9565b505050565b60006109166107d5565b8210610957576040517f08c379a000000000000000000000000000000000000000000000000000000000815260040161094e90612a5a565b60405180910390fd5b6008828154811061096b5761096a612a7a565b5b90600052602060002001549050919050565b6000806002600084815260200190815260200160002060009054906101000a900473ffffffffffffffffffffffffffffffffffffffff169050600073ffffffffffffffffffffffffffffffffffffffff168173ffffffffffffffffffffffffffffffffffffffff161415610a26576040517f08c379a0000000000000000000000000000000000000000000000000000000008152600401610a1d90612b1b565b60405180910390fd5b80915050919050565b60008073ffffffffffffffffffffffffffffffffffffffff168273ffffffffffffffffffffffffffffffffffffffff161415610aa0576040517f08c379a0000000000000000000000000000000000000000000000000000000008152600401610a9790612bad565b60405180910390fd5b600360008373ffffffffffffffffffffffffffffffffffffffff1673ffffffffffffffffffffffffffffffffffffffff168152602001908152602001600020549050919050565b80600b60006101000a81548173ffffffffffffffffffffffffffffffffffffffff021916908373ffffffffffffffffffffffffffffffffffffffff16021790555050565b606060018054610b3a906126dc565b80601f0160208091040260200160405190810160405280929190818152602001828054610b66906126dc565b8015610bb35780601f10610b8857610100808354040283529160200191610bb3565b820191906000526020600020905b815481529060010190602001808311610b9657829003601f168201915b5050505050905090565b610bcf610bc861103b565b8383611436565b5050565b600b60009054906101000a900473ffffffffffffffffffffffffffffffffffffffff1681565b610c0a610c0461103b565b836110fc565b610c49576040517f08c379a0000000000000000000000000000000000000000000000000000000008152600401610c4090612936565b60405180910390fd5b610c55848484846115a3565b50505050565b6060610c6682610fcf565b610ca5576040517f08c379a0000000000000000000000000000000000000000000000000000000008152600401610c9c90612c3f565b60405180910390fd5b600c60008381526020019081526020016000206002018054610cc6906126dc565b80601f0160208091040260200160405190810160405280929190818152602001828054610cf2906126dc565b8015610d3f5780601f10610d1457610100808354040283529160200191610d3f565b820191906000526020600020905b815481529060010190602001808311610d2257829003601f168201915b50505050509050919050565b6000610d57600a6115ff565b6000610d63600a611615565b9050610d6f3382611623565b610d9b600b60009054906101000a900473ffffffffffffffffffffffffffffffffffffffff16826105eb565b60405180606001604052808281526020013373ffffffffffffffffffffffffffffffffffffffff16815260200184815250600c60008381526020019081526020016000206000820151816000015560208201518160010160006101000a81548173ffffffffffffffffffffffffffffffffffffffff021916908373ffffffffffffffffffffffffffffffffffffffff1602179055506040820151816002019080519060200190610e4c929190611e8e565b5090505080915050919050565b6000600560008473ffffffffffffffffffffffffffffffffffffffff1673ffffffffffffffffffffffffffffffffffffffff16815260200190815260200160002060008373ffffffffffffffffffffffffffffffffffffffff1673ffffffffffffffffffffffffffffffffffffffff16815260200190815260200160002060009054906101000a900460ff16905092915050565b60007f80ac58cd000000000000000000000000000000000000000000000000000000007bffffffffffffffffffffffffffffffffffffffffffffffffffffffff1916827bffffffffffffffffffffffffffffffffffffffffffffffffffffffff19161480610fb857507f5b5e139f000000000000000000000000000000000000000000000000000000007bffffffffffffffffffffffffffffffffffffffffffffffffffffffff1916827bffffffffffffffffffffffffffffffffffffffffffffffffffffffff1916145b80610fc85750610fc782611641565b5b9050919050565b60008073ffffffffffffffffffffffffffffffffffffffff166002600084815260200190815260200160002060009054906101000a900473ffffffffffffffffffffffffffffffffffffffff1673ffffffffffffffffffffffffffffffffffffffff1614159050919050565b600033905090565b816004600083815260200190815260200160002060006101000a81548173ffffffffffffffffffffffffffffffffffffffff021916908373ffffffffffffffffffffffffffffffffffffffff160217905550808273ffffffffffffffffffffffffffffffffffffffff166110b68361097d565b73ffffffffffffffffffffffffffffffffffffffff167f8c5be1e5ebec7d5bd14f71427d1e84f3dd0314c0f7b2291e5b200ac8c7c3b92560405160405180910390a45050565b600061110782610fcf565b611146576040517f08c379a000000000000000000000000000000000000000000000000000000000815260040161113d90612cd1565b60405180910390fd5b60006111518361097d565b90508073ffffffffffffffffffffffffffffffffffffffff168473ffffffffffffffffffffffffffffffffffffffff1614806111c057508373ffffffffffffffffffffffffffffffffffffffff166111a884610566565b73ffffffffffffffffffffffffffffffffffffffff16145b806111d157506111d08185610e59565b5b91505092915050565b8273ffffffffffffffffffffffffffffffffffffffff166111fa8261097d565b73ffffffffffffffffffffffffffffffffffffffff1614611250576040517f08c379a000000000000000000000000000000000000000000000000000000000815260040161124790612d63565b60405180910390fd5b600073ffffffffffffffffffffffffffffffffffffffff168273ffffffffffffffffffffffffffffffffffffffff1614156112c0576040517f08c379a00000000000000000000000000000000000000000000000000000000081526004016112b790612df5565b60405180910390fd5b6112cb8383836116ab565b6112d6600082611043565b6001600360008573ffffffffffffffffffffffffffffffffffffffff1673ffffffffffffffffffffffffffffffffffffffff16815260200190815260200160002060008282546113269190612e44565b925050819055506001600360008473ffffffffffffffffffffffffffffffffffffffff1673ffffffffffffffffffffffffffffffffffffffff168152602001908152602001600020600082825461137d9190612e78565b92505081905550816002600083815260200190815260200160002060006101000a81548173ffffffffffffffffffffffffffffffffffffffff021916908373ffffffffffffffffffffffffffffffffffffffff160217905550808273ffffffffffffffffffffffffffffffffffffffff168473ffffffffffffffffffffffffffffffffffffffff167fddf252ad1be2c89b69c2b068fc378daa952ba7f163c4a11628f55a4df523b3ef60405160405180910390a4505050565b8173ffffffffffffffffffffffffffffffffffffffff168373ffffffffffffffffffffffffffffffffffffffff1614156114a5576040517f08c379a000000000000000000000000000000000000000000000000000000000815260040161149c90612f1a565b60405180910390fd5b80600560008573ffffffffffffffffffffffffffffffffffffffff1673ffffffffffffffffffffffffffffffffffffffff16815260200190815260200160002060008473ffffffffffffffffffffffffffffffffffffffff1673ffffffffffffffffffffffffffffffffffffffff16815260200190815260200160002060006101000a81548160ff0219169083151502179055508173ffffffffffffffffffffffffffffffffffffffff168373ffffffffffffffffffffffffffffffffffffffff167f17307eab39ab6107e8899845ad3d59bd9653f200f220920489ca2b5937696c31836040516115969190611fe5565b60405180910390a3505050565b6115ae8484846111da565b6115ba848484846117bf565b6115f9576040517f08c379a00000000000000000000000000000000000000000000000000000000081526004016115f090612fac565b60405180910390fd5b50505050565b6001816000016000828254019250508190555050565b600081600001549050919050565b61163d828260405180602001604052806000815250611947565b5050565b60007f01ffc9a7000000000000000000000000000000000000000000000000000000007bffffffffffffffffffffffffffffffffffffffffffffffffffffffff1916827bffffffffffffffffffffffffffffffffffffffffffffffffffffffff1916149050919050565b6116b68383836119a2565b600073ffffffffffffffffffffffffffffffffffffffff168373ffffffffffffffffffffffffffffffffffffffff1614156116f9576116f4816119a7565b611738565b8173ffffffffffffffffffffffffffffffffffffffff168373ffffffffffffffffffffffffffffffffffffffff16146117375761173683826119f0565b5b5b600073ffffffffffffffffffffffffffffffffffffffff168273ffffffffffffffffffffffffffffffffffffffff16141561177b5761177681611b5d565b6117ba565b8273ffffffffffffffffffffffffffffffffffffffff168273ffffffffffffffffffffffffffffffffffffffff16146117b9576117b88282611c2e565b5b5b505050565b60006117e08473ffffffffffffffffffffffffffffffffffffffff16611cad565b1561193a578373ffffffffffffffffffffffffffffffffffffffff1663150b7a0261180961103b565b8786866040518563ffffffff1660e01b815260040161182b9493929190613021565b6020604051808303816000875af192505050801561186757506040513d601f19601f820116820180604052508101906118649190613082565b60015b6118ea573d8060008114611897576040519150601f19603f3d011682016040523d82523d6000602084013e61189c565b606091505b506000815114156118e2576040517f08c379a00000000000000000000000000000000000000000000000000000000081526004016118d990612fac565b60405180910390fd5b805181602001fd5b63150b7a0260e01b7bffffffffffffffffffffffffffffffffffffffffffffffffffffffff1916817bffffffffffffffffffffffffffffffffffffffffffffffffffffffff19161491505061193f565b600190505b949350505050565b6119518383611cc0565b61195e60008484846117bf565b61199d576040517f08c379a000000000000000000000000000000000000000000000000000000000815260040161199490612fac565b60405180910390fd5b505050565b505050565b6008805490506009600083815260200190815260200160002081905550600881908060018154018082558091505060019003906000526020600020016000909190919091505550565b600060016119fd84610a2f565b611a079190612e44565b9050600060076000848152602001908152602001600020549050818114611aec576000600660008673ffffffffffffffffffffffffffffffffffffffff1673ffffffffffffffffffffffffffffffffffffffff168152602001908152602001600020600084815260200190815260200160002054905080600660008773ffffffffffffffffffffffffffffffffffffffff1673ffffffffffffffffffffffffffffffffffffffff168152602001908152602001600020600084815260200190815260200160002081905550816007600083815260200190815260200160002081905550505b6007600084815260200190815260200160002060009055600660008573ffffffffffffffffffffffffffffffffffffffff1673ffffffffffffffffffffffffffffffffffffffff16815260200190815260200160002060008381526020019081526020016000206000905550505050565b60006001600880549050611b719190612e44565b9050600060096000848152602001908152602001600020549050600060088381548110611ba157611ba0612a7a565b5b906000526020600020015490508060088381548110611bc357611bc2612a7a565b5b906000526020600020018190555081600960008381526020019081526020016000208190555060096000858152602001908152602001600020600090556008805480611c1257611c116130af565b5b6001900381819060005260206000200160009055905550505050565b6000611c3983610a2f565b905081600660008573ffffffffffffffffffffffffffffffffffffffff1673ffffffffffffffffffffffffffffffffffffffff168152602001908152602001600020600083815260200190815260200160002081905550806007600084815260200190815260200160002081905550505050565b600080823b905060008111915050919050565b600073ffffffffffffffffffffffffffffffffffffffff168273ffffffffffffffffffffffffffffffffffffffff161415611d30576040517f08c379a0000000000000000000000000000000000000000000000000000000008152600401611d279061312a565b60405180910390fd5b611d3981610fcf565b15611d79576040517f08c379a0000000000000000000000000000000000000000000000000000000008152600401611d7090613196565b60405180910390fd5b611d85600083836116ab565b6001600360008473ffffffffffffffffffffffffffffffffffffffff1673ffffffffffffffffffffffffffffffffffffffff1681526020019081526020016000206000828254611dd59190612e78565b92505081905550816002600083815260200190815260200160002060006101000a81548173ffffffffffffffffffffffffffffffffffffffff021916908373ffffffffffffffffffffffffffffffffffffffff160217905550808273ffffffffffffffffffffffffffffffffffffffff16600073ffffffffffffffffffffffffffffffffffffffff167fddf252ad1be2c89b69c2b068fc378daa952ba7f163c4a11628f55a4df523b3ef60405160405180910390a45050565b828054611e9a906126dc565b90600052602060002090601f016020900481019282611ebc5760008555611f03565b82601f10611ed557805160ff1916838001178555611f03565b82800160010185558215611f03579182015b82811115611f02578251825591602001919060010190611ee7565b5b509050611f109190611f14565b5090565b5b80821115611f2d576000816000905550600101611f15565b5090565b6000604051905090565b600080fd5b600080fd5b60007fffffffff0000000000000000000000000000000000000000000000000000000082169050919050565b611f7a81611f45565b8114611f8557600080fd5b50565b600081359050611f9781611f71565b92915050565b600060208284031215611fb357611fb2611f3b565b5b6000611fc184828501611f88565b91505092915050565b60008115159050919050565b611fdf81611fca565b82525050565b6000602082019050611ffa6000830184611fd6565b92915050565b600081519050919050565b600082825260208201905092915050565b60005b8381101561203a57808201518184015260208101905061201f565b83811115612049576000848401525b50505050565b6000601f19601f8301169050919050565b600061206b82612000565b612075818561200b565b935061208581856020860161201c565b61208e8161204f565b840191505092915050565b600060208201905081810360008301526120b38184612060565b905092915050565b6000819050919050565b6120ce816120bb565b81146120d957600080fd5b50565b6000813590506120eb816120c5565b92915050565b60006020828403121561210757612106611f3b565b5b6000612115848285016120dc565b91505092915050565b600073ffffffffffffffffffffffffffffffffffffffff82169050919050565b60006121498261211e565b9050919050565b6121598161213e565b82525050565b60006020820190506121746000830184612150565b92915050565b6121838161213e565b811461218e57600080fd5b50565b6000813590506121a08161217a565b92915050565b600080604083850312156121bd576121bc611f3b565b5b60006121cb85828601612191565b92505060206121dc858286016120dc565b9150509250929050565b6121ef816120bb565b82525050565b600060608201905061220a60008301866121e6565b6122176020830185612150565b81810360408301526122298184612060565b9050949350505050565b600060208201905061224860008301846121e6565b92915050565b60008060006060848603121561226757612266611f3b565b5b600061227586828701612191565b935050602061228686828701612191565b9250506040612297868287016120dc565b9150509250925092565b60006122ac8261211e565b9050919050565b6122bc816122a1565b81146122c757600080fd5b50565b6000813590506122d9816122b3565b92915050565b6000806000606084860312156122f8576122f7611f3b565b5b6000612306868287016122ca565b935050602061231786828701612191565b9250506040612328868287016120dc565b9150509250925092565b60006020828403121561234857612347611f3b565b5b600061235684828501612191565b91505092915050565b61236881611fca565b811461237357600080fd5b50565b6000813590506123858161235f565b92915050565b600080604083850312156123a2576123a1611f3b565b5b60006123b085828601612191565b92505060206123c185828601612376565b9150509250929050565b600080fd5b600080fd5b7f4e487b7100000000000000000000000000000000000000000000000000000000600052604160045260246000fd5b61240d8261204f565b810181811067ffffffffffffffff8211171561242c5761242b6123d5565b5b80604052505050565b600061243f611f31565b905061244b8282612404565b919050565b600067ffffffffffffffff82111561246b5761246a6123d5565b5b6124748261204f565b9050602081019050919050565b82818337600083830152505050565b60006124a361249e84612450565b612435565b9050828152602081018484840111156124bf576124be6123d0565b5b6124ca848285612481565b509392505050565b600082601f8301126124e7576124e66123cb565b5b81356124f7848260208601612490565b91505092915050565b6000806000806080858703121561251a57612519611f3b565b5b600061252887828801612191565b945050602061253987828801612191565b935050604061254a878288016120dc565b925050606085013567ffffffffffffffff81111561256b5761256a611f40565b5b612577878288016124d2565b91505092959194509250565b600067ffffffffffffffff82111561259e5761259d6123d5565b5b6125a78261204f565b9050602081019050919050565b60006125c76125c284612583565b612435565b9050828152602081018484840111156125e3576125e26123d0565b5b6125ee848285612481565b509392505050565b600082601f83011261260b5761260a6123cb565b5b813561261b8482602086016125b4565b91505092915050565b60006020828403121561263a57612639611f3b565b5b600082013567ffffffffffffffff81111561265857612657611f40565b5b612664848285016125f6565b91505092915050565b6000806040838503121561268457612683611f3b565b5b600061269285828601612191565b92505060206126a385828601612191565b9150509250929050565b7f4e487b7100000000000000000000000000000000000000000000000000000000600052602260045260246000fd5b600060028204905060018216806126f457607f821691505b60208210811415612708576127076126ad565b5b50919050565b7f4552433732313a20617070726f76656420717565727920666f72206e6f6e657860008201527f697374656e7420746f6b656e0000000000000000000000000000000000000000602082015250565b600061276a602c8361200b565b91506127758261270e565b604082019050919050565b600060208201905081810360008301526127998161275d565b9050919050565b7f4552433732313a20617070726f76616c20746f2063757272656e74206f776e6560008201527f7200000000000000000000000000000000000000000000000000000000000000602082015250565b60006127fc60218361200b565b9150612807826127a0565b604082019050919050565b6000602082019050818103600083015261282b816127ef565b9050919050565b7f4552433732313a20617070726f76652063616c6c6572206973206e6f74206f7760008201527f6e6572206e6f7220617070726f76656420666f7220616c6c0000000000000000602082015250565b600061288e60388361200b565b915061289982612832565b604082019050919050565b600060208201905081810360008301526128bd81612881565b9050919050565b7f4552433732313a207472616e736665722063616c6c6572206973206e6f74206f60008201527f776e6572206e6f7220617070726f766564000000000000000000000000000000602082015250565b600061292060318361200b565b915061292b826128c4565b604082019050919050565b6000602082019050818103600083015261294f81612913565b9050919050565b7f455243373231456e756d657261626c653a206f776e657220696e646578206f7560008201527f74206f6620626f756e6473000000000000000000000000000000000000000000602082015250565b60006129b2602b8361200b565b91506129bd82612956565b604082019050919050565b600060208201905081810360008301526129e1816129a5565b9050919050565b7f455243373231456e756d657261626c653a20676c6f62616c20696e646578206f60008201527f7574206f6620626f756e64730000000000000000000000000000000000000000602082015250565b6000612a44602c8361200b565b9150612a4f826129e8565b604082019050919050565b60006020820190508181036000830152612a7381612a37565b9050919050565b7f4e487b7100000000000000000000000000000000000000000000000000000000600052603260045260246000fd5b7f4552433732313a206f776e657220717565727920666f72206e6f6e657869737460008201527f656e7420746f6b656e0000000000000000000000000000000000000000000000602082015250565b6000612b0560298361200b565b9150612b1082612aa9565b604082019050919050565b60006020820190508181036000830152612b3481612af8565b9050919050565b7f4552433732313a2062616c616e636520717565727920666f7220746865207a6560008201527f726f206164647265737300000000000000000000000000000000000000000000602082015250565b6000612b97602a8361200b565b9150612ba282612b3b565b604082019050919050565b60006020820190508181036000830152612bc681612b8a565b9050919050565b7f45524337323155524953746f726167653a2055524920717565727920666f722060008201527f6e6f6e6578697374656e7420746f6b656e000000000000000000000000000000602082015250565b6000612c2960318361200b565b9150612c3482612bcd565b604082019050919050565b60006020820190508181036000830152612c5881612c1c565b9050919050565b7f4552433732313a206f70657261746f7220717565727920666f72206e6f6e657860008201527f697374656e7420746f6b656e0000000000000000000000000000000000000000602082015250565b6000612cbb602c8361200b565b9150612cc682612c5f565b604082019050919050565b60006020820190508181036000830152612cea81612cae565b9050919050565b7f4552433732313a207472616e73666572206f6620746f6b656e2074686174206960008201527f73206e6f74206f776e0000000000000000000000000000000000000000000000602082015250565b6000612d4d60298361200b565b9150612d5882612cf1565b604082019050919050565b60006020820190508181036000830152612d7c81612d40565b9050919050565b7f4552433732313a207472616e7366657220746f20746865207a65726f2061646460008201527f7265737300000000000000000000000000000000000000000000000000000000602082015250565b6000612ddf60248361200b565b9150612dea82612d83565b604082019050919050565b60006020820190508181036000830152612e0e81612dd2565b9050919050565b7f4e487b7100000000000000000000000000000000000000000000000000000000600052601160045260246000fd5b6000612e4f826120bb565b9150612e5a836120bb565b925082821015612e6d57612e6c612e15565b5b828203905092915050565b6000612e83826120bb565b9150612e8e836120bb565b9250827fffffffffffffffffffffffffffffffffffffffffffffffffffffffffffffffff03821115612ec357612ec2612e15565b5b828201905092915050565b7f4552433732313a20617070726f766520746f2063616c6c657200000000000000600082015250565b6000612f0460198361200b565b9150612f0f82612ece565b602082019050919050565b60006020820190508181036000830152612f3381612ef7565b9050919050565b7f4552433732313a207472616e7366657220746f206e6f6e20455243373231526560008201527f63656976657220696d706c656d656e7465720000000000000000000000000000602082015250565b6000612f9660328361200b565b9150612fa182612f3a565b604082019050919050565b60006020820190508181036000830152612fc581612f89565b9050919050565b600081519050919050565b600082825260208201905092915050565b6000612ff382612fcc565b612ffd8185612fd7565b935061300d81856020860161201c565b6130168161204f565b840191505092915050565b60006080820190506130366000830187612150565b6130436020830186612150565b61305060408301856121e6565b81810360608301526130628184612fe8565b905095945050505050565b60008151905061307c81611f71565b92915050565b60006020828403121561309857613097611f3b565b5b60006130a68482850161306d565b91505092915050565b7f4e487b7100000000000000000000000000000000000000000000000000000000600052603160045260246000fd5b7f4552433732313a206d696e7420746f20746865207a65726f2061646472657373600082015250565b600061311460208361200b565b915061311f826130de565b602082019050919050565b6000602082019050818103600083015261314381613107565b9050919050565b7f4552433732313a20746f6b656e20616c7265616479206d696e74656400000000600082015250565b6000613180601c8361200b565b915061318b8261314a565b602082019050919050565b600060208201905081810360008301526131af81613173565b905091905056fea26469706673582212207644614aff98d5bf18956dabae7b7928fbc37e2537443e383e28dfc26b0c4c1a64736f6c634300080c0033",
  "immutableReferences": {},
  "source": "pragma solidity ^0.8.0;\r\n\r\nimport \"@openzeppelin/contracts/token/ERC721/ERC721.sol\";\r\nimport \"@openzeppelin/contracts/token/ERC721/extensions/ERC721Enumerable.sol\";\r\nimport \"@openzeppelin/contracts/token/ERC721/extensions/ERC721URIStorage.sol\";\r\nimport \"@openzeppelin/contracts/utils/Counters.sol\";\r\n\r\n\r\ncontract ArtToken is ERC721Enumerable {\r\n    using Counters for Counters.Counter;\r\n\r\n    Counters.Counter private _tokenIds;\r\n    address public marketplace;\r\n\r\n    struct Item {\r\n        uint256 id;\r\n        address creator;\r\n        string uri; // metadata url \r\n    }\r\n\r\n    mapping(uint256 => Item) public Items; // id => Item \r\n\r\n    constructor() ERC721(\"ArtToken\", \"ARTK\") {}\r\n\r\n    function mint(string memory uri) public returns (uint256){\r\n        _tokenIds.increment();\r\n        uint256 newItemId = _tokenIds.current();\r\n        _safeMint(msg.sender, newItemId);\r\n        approve(marketplace, newItemId);\r\n\r\n        Items[newItemId] = Item({\r\n            id: newItemId,\r\n            creator: msg.sender,\r\n            uri: uri \r\n        });\r\n\r\n        return newItemId;\r\n    }\r\n\r\n    function tokenURI(uint256 tokenId) public view override returns (string memory){\r\n        require(_exists(tokenId), \"ERC721URIStorage: URI query for nonexistent token\");\r\n        return Items[tokenId].uri;\r\n    }\r\n\r\n    function setMarketplace(address market) public {\r\n        marketplace = market;\r\n    }\r\n\r\n    function safeTransferForm(address payable sellerId, address message, uint256 tokenId) public{\r\n\r\n    }\r\n}",
  "sourcePath": "C:\\Users\\sheha\\OneDrive\\Documents\\GitHub\\nft-marketplace-app\\contracts\\ArtToken.sol",
  "compiler": {
    "name": "solc",
    "version": "0.8.12+commit.f00d7308.Emscripten.clang"
  },
  "schemaVersion": "3.4.4",
  "updatedAt": "2022-02-21T16:12:33.046Z",
  "networkType": "ethereum",
  "devdoc": {
    "kind": "dev",
    "methods": {
      "approve(address,uint256)": {
        "details": "See {IERC721-approve}."
      },
      "balanceOf(address)": {
        "details": "See {IERC721-balanceOf}."
      },
      "getApproved(uint256)": {
        "details": "See {IERC721-getApproved}."
      },
      "isApprovedForAll(address,address)": {
        "details": "See {IERC721-isApprovedForAll}."
      },
      "name()": {
        "details": "See {IERC721Metadata-name}."
      },
      "ownerOf(uint256)": {
        "details": "See {IERC721-ownerOf}."
      },
      "safeTransferFrom(address,address,uint256)": {
        "details": "See {IERC721-safeTransferFrom}."
      },
      "safeTransferFrom(address,address,uint256,bytes)": {
        "details": "See {IERC721-safeTransferFrom}."
      },
      "setApprovalForAll(address,bool)": {
        "details": "See {IERC721-setApprovalForAll}."
      },
      "supportsInterface(bytes4)": {
        "details": "See {IERC165-supportsInterface}."
      },
      "symbol()": {
        "details": "See {IERC721Metadata-symbol}."
      },
      "tokenByIndex(uint256)": {
        "details": "See {IERC721Enumerable-tokenByIndex}."
      },
      "tokenOfOwnerByIndex(address,uint256)": {
        "details": "See {IERC721Enumerable-tokenOfOwnerByIndex}."
      },
      "tokenURI(uint256)": {
        "details": "See {IERC721Metadata-tokenURI}."
      },
      "totalSupply()": {
        "details": "See {IERC721Enumerable-totalSupply}."
      },
      "transferFrom(address,address,uint256)": {
        "details": "See {IERC721-transferFrom}."
      }
    },
    "version": 1
  },
  "userdoc": {
    "kind": "user",
    "methods": {},
    "version": 1
  }
}