{
  "_format": "hh-sol-artifact-1",
  "contractName": "ArtMarketplace",
  "sourceName": "contracts/ArtMarketplace.sol",
  "abi": [
    {
      "inputs": [
        {
          "internalType": "contract ArtToken",
          "name": "_token",
          "type": "address"
        }
      ],
      "stateMutability": "nonpayable",
      "type": "constructor"
    },
    {
      "anonymous": false,
      "inputs": [
        {
          "indexed": false,
          "internalType": "uint256",
          "name": "",
          "type": "uint256"
        },
        {
          "indexed": false,
          "internalType": "uint256",
          "name": "tokenId",
          "type": "uint256"
        },
        {
          "indexed": false,
          "internalType": "uint256",
          "name": "price",
          "type": "uint256"
        }
      ],
      "name": "itemAddedForSale",
      "type": "event"
    },
    {
      "anonymous": false,
      "inputs": [
        {
          "indexed": false,
          "internalType": "uint256",
          "name": "id",
          "type": "uint256"
        },
        {
          "indexed": false,
          "internalType": "address",
          "name": "buyer",
          "type": "address"
        },
        {
          "indexed": false,
          "internalType": "uint256",
          "name": "price",
          "type": "uint256"
        }
      ],
      "name": "itemSold",
      "type": "event"
    },
    {
      "inputs": [
        {
          "internalType": "uint256",
          "name": "",
          "type": "uint256"
        }
      ],
      "name": "activeItems",
      "outputs": [
        {
          "internalType": "bool",
          "name": "",
          "type": "bool"
        }
      ],
      "stateMutability": "view",
      "type": "function"
    },
    {
      "inputs": [
        {
          "internalType": "uint256",
          "name": "id",
          "type": "uint256"
        }
      ],
      "name": "buyItem",
      "outputs": [],
      "stateMutability": "payable",
      "type": "function"
    },
    {
      "inputs": [
        {
          "internalType": "uint256",
          "name": "",
          "type": "uint256"
        }
      ],
      "name": "itemsForSale",
      "outputs": [
        {
          "internalType": "uint256",
          "name": "id",
          "type": "uint256"
        },
        {
          "internalType": "uint256",
          "name": "tokenId",
          "type": "uint256"
        },
        {
          "internalType": "address payable",
          "name": "seller",
          "type": "address"
        },
        {
          "internalType": "uint256",
          "name": "price",
          "type": "uint256"
        },
        {
          "internalType": "bool",
          "name": "isSold",
          "type": "bool"
        }
      ],
      "stateMutability": "view",
      "type": "function"
    },
    {
      "inputs": [
        {
          "internalType": "uint256",
          "name": "tokenId",
          "type": "uint256"
        },
        {
          "internalType": "uint256",
          "name": "price",
          "type": "uint256"
        }
      ],
      "name": "putItemForSale",
      "outputs": [
        {
          "internalType": "uint256",
          "name": "",
          "type": "uint256"
        }
      ],
      "stateMutability": "nonpayable",
      "type": "function"
    },
    {
      "inputs": [],
      "name": "totalItemsForSale",
      "outputs": [
        {
          "internalType": "uint256",
          "name": "",
          "type": "uint256"
        }
      ],
      "stateMutability": "view",
      "type": "function"
    }
  ],
  "bytecode": "0x608060405234801561001057600080fd5b50604051610c09380380610c0983398101604081905261002f91610054565b600080546001600160a01b0319166001600160a01b0392909216919091179055610082565b600060208284031215610065578081fd5b81516001600160a01b038116811461007b578182fd5b9392505050565b610b78806100916000396000f3fe60806040526004361061004a5760003560e01c8063092d0afc1461004f5780639c318c7b146100ac578063e7fb74c7146100ec578063ec8120c914610101578063f4f3576414610120575b600080fd5b34801561005b57600080fd5b5061006f61006a366004610b09565b610140565b6040805195865260208601949094526001600160a01b039092169284019290925260608301919091521515608082015260a0015b60405180910390f35b3480156100b857600080fd5b506100dc6100c7366004610b09565b60026020526000908152604090205460ff1681565b60405190151581526020016100a3565b6100ff6100fa366004610b09565b61018e565b005b34801561010d57600080fd5b506001545b6040519081526020016100a3565b34801561012c57600080fd5b5061011261013b366004610b21565b6106fe565b6001818154811061015057600080fd5b60009182526020909120600590910201805460018201546002830154600384015460049094015492945090926001600160a01b039091169160ff1685565b6001548190811080156101d2575080600182815481106101be57634e487b7160e01b600052603260045260246000fd5b906000526020600020906005020160000154145b6102195760405162461bcd60e51b8152602060048201526013602482015272436f756c64206e6f742066696e64206974656d60681b60448201526064015b60405180910390fd5b816001818154811061023b57634e487b7160e01b600052603260045260246000fd5b600091825260209091206004600590920201015460ff16156102965760405162461bcd60e51b8152602060048201526014602482015273125d195b481a5cc8185b1c9958591e481cdbdb1960621b6044820152606401610210565b600183815481106102b757634e487b7160e01b600052603260045260246000fd5b6000918252602082206005919091020160010154905460405163020604bf60e21b81526004810183905230916001600160a01b03169063081812fc9060240160206040518083038186803b15801561030e57600080fd5b505afa158015610322573d6000803e3d6000fd5b505050506040513d601f19601f820116820180604052508101906103469190610adb565b6001600160a01b0316146103955760405162461bcd60e51b815260206004820152601660248201527513585c9ad95d081a5cc81b9bdd08185c1c1c9bdd995960521b6044820152606401610210565b600184815481106103b657634e487b7160e01b600052603260045260246000fd5b90600052602060002090600502016003015434101561040f5760405162461bcd60e51b8152602060048201526015602482015274139bdd08195b9bdd59da08199d5b991cc81cd95b9d605a1b6044820152606401610210565b6001848154811061043057634e487b7160e01b600052603260045260246000fd5b60009182526020909120600590910201600201546001600160a01b031633141561045957600080fd5b600180858154811061047b57634e487b7160e01b600052603260045260246000fd5b906000526020600020906005020160040160006101000a81548160ff021916908315150217905550600060026000600187815481106104ca57634e487b7160e01b600052603260045260246000fd5b906000526020600020906005020160010154815260200190815260200160002060006101000a81548160ff02191690831515021790555060008054906101000a90046001600160a01b03166001600160a01b03166342842e0e6001868154811061054457634e487b7160e01b600052603260045260246000fd5b906000526020600020906005020160020160009054906101000a90046001600160a01b0316336001888154811061058b57634e487b7160e01b600052603260045260246000fd5b60009182526020909120600160059092020101546040516001600160e01b031960e086901b1681526001600160a01b0393841660048201529290911660248301526044820152606401600060405180830381600087803b1580156105ee57600080fd5b505af1158015610602573d6000803e3d6000fd5b505050506001848154811061062757634e487b7160e01b600052603260045260246000fd5b600091825260208220600260059092020101546040516001600160a01b03909116913480156108fc02929091818181858888f19350505050158015610670573d6000803e3d6000fd5b507f8164c6f8917e418c49813e4586897c7067de5a886aa1bea980cd11fa57d482648433600187815481106106b557634e487b7160e01b600052603260045260246000fd5b9060005260206000209060050201600301546040516106f0939291909283526001600160a01b03919091166020830152604082015260600190565b60405180910390a150505050565b600080546040516331a9108f60e11b815260048101859052849133916001600160a01b0390911690636352211e9060240160206040518083038186803b15801561074757600080fd5b505afa15801561075b573d6000803e3d6000fd5b505050506040513d601f19601f8201168201806040525081019061077f9190610adb565b6001600160a01b0316146107d55760405162461bcd60e51b815260206004820152601c60248201527f53656e64657220646f6573206e6f74206f776e20746865206974656d000000006044820152606401610210565b60005460405163020604bf60e21b815260048101869052859130916001600160a01b039091169063081812fc9060240160206040518083038186803b15801561081d57600080fd5b505afa158015610831573d6000803e3d6000fd5b505050506040513d601f19601f820116820180604052508101906108559190610adb565b6001600160a01b0316146108a45760405162461bcd60e51b815260206004820152601660248201527513585c9ad95d081a5cc81b9bdd08185c1c1c9bdd995960521b6044820152606401610210565b60008581526002602052604090205460ff16156109035760405162461bcd60e51b815260206004820152601b60248201527f4974656d20697320616c726561647920757020666f722073616c6500000000006044820152606401610210565b600180546040805160a08101825282815260208082018a815233838501908152606084018b8152600060808601818152888a018a558982529551600589027fb10e2d527612073b26eecdfd717e6a320cf44b4afac2b0732d9fcbe2b7fa0cf681019190915593517fb10e2d527612073b26eecdfd717e6a320cf44b4afac2b0732d9fcbe2b7fa0cf785015591517fb10e2d527612073b26eecdfd717e6a320cf44b4afac2b0732d9fcbe2b7fa0cf8840180546001600160a01b03929092166001600160a01b0319909216919091179055517fb10e2d527612073b26eecdfd717e6a320cf44b4afac2b0732d9fcbe2b7fa0cf983015592517fb10e2d527612073b26eecdfd717e6a320cf44b4afac2b0732d9fcbe2b7fa0cfa909101805491151560ff199283161790558a8352600290915291902080549091168317905581549091829182908110610a6457634e487b7160e01b600052603260045260246000fd5b90600052602060002090600502016000015414610a9157634e487b7160e01b600052600160045260246000fd5b60408051828152602081018890529081018690527fafd8780f802588de8705083b0f6a33ac59b8d0228c80f9babe0549c1621c33f89060600160405180910390a195945050505050565b600060208284031215610aec578081fd5b81516001600160a01b0381168114610b02578182fd5b9392505050565b600060208284031215610b1a578081fd5b5035919050565b60008060408385031215610b33578081fd5b5050803592602090910135915056fea26469706673582212202c4eb29ed8e854c95868cf5848bee39ed383404f1ffc6b10e006a0c4b370cf1264736f6c63430008040033",
  "linkReferences": {},
  "deployedLinkReferences": {}
}