{
  "_format": "hh-sol-artifact-1",
  "contractName": "ArtToken",
  "sourceName": "contracts/ArtToken.sol",
  "abi": [
    {
      "inputs": [],
      "stateMutability": "nonpayable",
      "type": "constructor"
    },
    {
      "anonymous": false,
      "inputs": [
        {
          "indexed": true,
          "internalType": "address",
          "name": "owner",
          "type": "address"
        },
        {
          "indexed": true,
          "internalType": "address",
          "name": "approved",
          "type": "address"
        },
        {
          "indexed": true,
          "internalType": "uint256",
          "name": "tokenId",
          "type": "uint256"
        }
      ],
      "name": "Approval",
      "type": "event"
    },
    {
      "anonymous": false,
      "inputs": [
        {
          "indexed": true,
          "internalType": "address",
          "name": "owner",
          "type": "address"
        },
        {
          "indexed": true,
          "internalType": "address",
          "name": "operator",
          "type": "address"
        },
        {
          "indexed": false,
          "internalType": "bool",
          "name": "approved",
          "type": "bool"
        }
      ],
      "name": "ApprovalForAll",
      "type": "event"
    },
    {
      "anonymous": false,
      "inputs": [
        {
          "indexed": true,
          "internalType": "address",
          "name": "from",
          "type": "address"
        },
        {
          "indexed": true,
          "internalType": "address",
          "name": "to",
          "type": "address"
        },
        {
          "indexed": true,
          "internalType": "uint256",
          "name": "tokenId",
          "type": "uint256"
        }
      ],
      "name": "Transfer",
      "type": "event"
    },
    {
      "inputs": [
        {
          "internalType": "uint256",
          "name": "",
          "type": "uint256"
        }
      ],
      "name": "Items",
      "outputs": [
        {
          "internalType": "uint256",
          "name": "id",
          "type": "uint256"
        },
        {
          "internalType": "address",
          "name": "creator",
          "type": "address"
        },
        {
          "internalType": "string",
          "name": "uri",
          "type": "string"
        }
      ],
      "stateMutability": "view",
      "type": "function"
    },
    {
      "inputs": [
        {
          "internalType": "address",
          "name": "to",
          "type": "address"
        },
        {
          "internalType": "uint256",
          "name": "tokenId",
          "type": "uint256"
        }
      ],
      "name": "approve",
      "outputs": [],
      "stateMutability": "nonpayable",
      "type": "function"
    },
    {
      "inputs": [
        {
          "internalType": "address",
          "name": "owner",
          "type": "address"
        }
      ],
      "name": "balanceOf",
      "outputs": [
        {
          "internalType": "uint256",
          "name": "",
          "type": "uint256"
        }
      ],
      "stateMutability": "view",
      "type": "function"
    },
    {
      "inputs": [
        {
          "internalType": "uint256",
          "name": "tokenId",
          "type": "uint256"
        }
      ],
      "name": "getApproved",
      "outputs": [
        {
          "internalType": "address",
          "name": "",
          "type": "address"
        }
      ],
      "stateMutability": "view",
      "type": "function"
    },
    {
      "inputs": [
        {
          "internalType": "address",
          "name": "owner",
          "type": "address"
        },
        {
          "internalType": "address",
          "name": "operator",
          "type": "address"
        }
      ],
      "name": "isApprovedForAll",
      "outputs": [
        {
          "internalType": "bool",
          "name": "",
          "type": "bool"
        }
      ],
      "stateMutability": "view",
      "type": "function"
    },
    {
      "inputs": [],
      "name": "marketplace",
      "outputs": [
        {
          "internalType": "address",
          "name": "",
          "type": "address"
        }
      ],
      "stateMutability": "view",
      "type": "function"
    },
    {
      "inputs": [
        {
          "internalType": "string",
          "name": "uri",
          "type": "string"
        }
      ],
      "name": "mint",
      "outputs": [
        {
          "internalType": "uint256",
          "name": "",
          "type": "uint256"
        }
      ],
      "stateMutability": "nonpayable",
      "type": "function"
    },
    {
      "inputs": [],
      "name": "name",
      "outputs": [
        {
          "internalType": "string",
          "name": "",
          "type": "string"
        }
      ],
      "stateMutability": "view",
      "type": "function"
    },
    {
      "inputs": [
        {
          "internalType": "uint256",
          "name": "tokenId",
          "type": "uint256"
        }
      ],
      "name": "ownerOf",
      "outputs": [
        {
          "internalType": "address",
          "name": "",
          "type": "address"
        }
      ],
      "stateMutability": "view",
      "type": "function"
    },
    {
      "inputs": [
        {
          "internalType": "address",
          "name": "from",
          "type": "address"
        },
        {
          "internalType": "address",
          "name": "to",
          "type": "address"
        },
        {
          "internalType": "uint256",
          "name": "tokenId",
          "type": "uint256"
        }
      ],
      "name": "safeTransferFrom",
      "outputs": [],
      "stateMutability": "nonpayable",
      "type": "function"
    },
    {
      "inputs": [
        {
          "internalType": "address",
          "name": "from",
          "type": "address"
        },
        {
          "internalType": "address",
          "name": "to",
          "type": "address"
        },
        {
          "internalType": "uint256",
          "name": "tokenId",
          "type": "uint256"
        },
        {
          "internalType": "bytes",
          "name": "_data",
          "type": "bytes"
        }
      ],
      "name": "safeTransferFrom",
      "outputs": [],
      "stateMutability": "nonpayable",
      "type": "function"
    },
    {
      "inputs": [
        {
          "internalType": "address",
          "name": "operator",
          "type": "address"
        },
        {
          "internalType": "bool",
          "name": "approved",
          "type": "bool"
        }
      ],
      "name": "setApprovalForAll",
      "outputs": [],
      "stateMutability": "nonpayable",
      "type": "function"
    },
    {
      "inputs": [
        {
          "internalType": "address",
          "name": "market",
          "type": "address"
        }
      ],
      "name": "setMarketplace",
      "outputs": [],
      "stateMutability": "nonpayable",
      "type": "function"
    },
    {
      "inputs": [
        {
          "internalType": "bytes4",
          "name": "interfaceId",
          "type": "bytes4"
        }
      ],
      "name": "supportsInterface",
      "outputs": [
        {
          "internalType": "bool",
          "name": "",
          "type": "bool"
        }
      ],
      "stateMutability": "view",
      "type": "function"
    },
    {
      "inputs": [],
      "name": "symbol",
      "outputs": [
        {
          "internalType": "string",
          "name": "",
          "type": "string"
        }
      ],
      "stateMutability": "view",
      "type": "function"
    },
    {
      "inputs": [
        {
          "internalType": "uint256",
          "name": "index",
          "type": "uint256"
        }
      ],
      "name": "tokenByIndex",
      "outputs": [
        {
          "internalType": "uint256",
          "name": "",
          "type": "uint256"
        }
      ],
      "stateMutability": "view",
      "type": "function"
    },
    {
      "inputs": [
        {
          "internalType": "address",
          "name": "owner",
          "type": "address"
        },
        {
          "internalType": "uint256",
          "name": "index",
          "type": "uint256"
        }
      ],
      "name": "tokenOfOwnerByIndex",
      "outputs": [
        {
          "internalType": "uint256",
          "name": "",
          "type": "uint256"
        }
      ],
      "stateMutability": "view",
      "type": "function"
    },
    {
      "inputs": [
        {
          "internalType": "uint256",
          "name": "tokenId",
          "type": "uint256"
        }
      ],
      "name": "tokenURI",
      "outputs": [
        {
          "internalType": "string",
          "name": "",
          "type": "string"
        }
      ],
      "stateMutability": "view",
      "type": "function"
    },
    {
      "inputs": [],
      "name": "totalSupply",
      "outputs": [
        {
          "internalType": "uint256",
          "name": "",
          "type": "uint256"
        }
      ],
      "stateMutability": "view",
      "type": "function"
    },
    {
      "inputs": [
        {
          "internalType": "address",
          "name": "from",
          "type": "address"
        },
        {
          "internalType": "address",
          "name": "to",
          "type": "address"
        },
        {
          "internalType": "uint256",
          "name": "tokenId",
          "type": "uint256"
        }
      ],
      "name": "transferFrom",
      "outputs": [],
      "stateMutability": "nonpayable",
      "type": "function"
    }
  ],
  "bytecode": "0x60806040523480156200001157600080fd5b50604080518082018252600881526720b93a2a37b5b2b760c11b6020808301918252835180850190945260048452634152544b60e01b9084015281519192916200005e916000916200007d565b508051620000749060019060208401906200007d565b50505062000160565b8280546200008b9062000123565b90600052602060002090601f016020900481019282620000af5760008555620000fa565b82601f10620000ca57805160ff1916838001178555620000fa565b82800160010185558215620000fa579182015b82811115620000fa578251825591602001919060010190620000dd565b50620001089291506200010c565b5090565b5b808211156200010857600081556001016200010d565b600181811c908216806200013857607f821691505b602082108114156200015a57634e487b7160e01b600052602260045260246000fd5b50919050565b6119d980620001706000396000f3fe608060405234801561001057600080fd5b506004361061012c5760003560e01c80636352211e116100ad578063abc8c7af11610071578063abc8c7af1461029f578063b88d4fde146102b2578063c87b56dd146102c5578063d85d3d27146102d8578063e985e9c5146102eb57600080fd5b80636352211e1461022e57806370a082311461024157806373ad6c2d1461025457806395d89b4114610284578063a22cb4651461028c57600080fd5b806318160ddd116100f457806318160ddd146101d057806323b872dd146101e25780632f745c59146101f557806342842e0e146102085780634f6ccce71461021b57600080fd5b806301ffc9a71461013157806306fdde0314610159578063081812fc1461016e578063095ea7b31461019957806317b47cc4146101ae575b600080fd5b61014461013f3660046116ed565b610327565b60405190151581526020015b60405180910390f35b610161610352565b604051610150919061180b565b61018161017c36600461176b565b6103e4565b6040516001600160a01b039091168152602001610150565b6101ac6101a73660046116c4565b61047e565b005b6101c16101bc36600461176b565b610594565b604051610150939291906118c1565b6008545b604051908152602001610150565b6101ac6101f03660046115d6565b610649565b6101d46102033660046116c4565b61067a565b6101ac6102163660046115d6565b610710565b6101d461022936600461176b565b61072b565b61018161023c36600461176b565b6107cc565b6101d461024f366004611583565b610843565b6101ac610262366004611583565b600b80546001600160a01b0319166001600160a01b0392909216919091179055565b6101616108ca565b6101ac61029a36600461168a565b6108d9565b600b54610181906001600160a01b031681565b6101ac6102c0366004611611565b61099e565b6101616102d336600461176b565b6109d6565b6101d46102e6366004611725565b610af8565b6101446102f93660046115a4565b6001600160a01b03918216600090815260056020908152604080832093909416825291909152205460ff1690565b60006001600160e01b0319821663780e9d6360e01b148061034c575061034c82610ba7565b92915050565b60606000805461036190611923565b80601f016020809104026020016040519081016040528092919081815260200182805461038d90611923565b80156103da5780601f106103af576101008083540402835291602001916103da565b820191906000526020600020905b8154815290600101906020018083116103bd57829003601f168201915b5050505050905090565b6000818152600260205260408120546001600160a01b03166104625760405162461bcd60e51b815260206004820152602c60248201527f4552433732313a20617070726f76656420717565727920666f72206e6f6e657860448201526b34b9ba32b73a103a37b5b2b760a11b60648201526084015b60405180910390fd5b506000908152600460205260409020546001600160a01b031690565b6000610489826107cc565b9050806001600160a01b0316836001600160a01b031614156104f75760405162461bcd60e51b815260206004820152602160248201527f4552433732313a20617070726f76616c20746f2063757272656e74206f776e656044820152603960f91b6064820152608401610459565b336001600160a01b0382161480610513575061051381336102f9565b6105855760405162461bcd60e51b815260206004820152603860248201527f4552433732313a20617070726f76652063616c6c6572206973206e6f74206f7760448201527f6e6572206e6f7220617070726f76656420666f7220616c6c00000000000000006064820152608401610459565b61058f8383610bf7565b505050565b600c6020526000908152604090208054600182015460028301805492936001600160a01b03909216926105c690611923565b80601f01602080910402602001604051908101604052809291908181526020018280546105f290611923565b801561063f5780601f106106145761010080835404028352916020019161063f565b820191906000526020600020905b81548152906001019060200180831161062257829003601f168201915b5050505050905083565b6106533382610c65565b61066f5760405162461bcd60e51b815260040161045990611870565b61058f838383610d5c565b600061068583610843565b82106106e75760405162461bcd60e51b815260206004820152602b60248201527f455243373231456e756d657261626c653a206f776e657220696e646578206f7560448201526a74206f6620626f756e647360a81b6064820152608401610459565b506001600160a01b03919091166000908152600660209081526040808320938352929052205490565b61058f8383836040518060200160405280600081525061099e565b600061073660085490565b82106107995760405162461bcd60e51b815260206004820152602c60248201527f455243373231456e756d657261626c653a20676c6f62616c20696e646578206f60448201526b7574206f6620626f756e647360a01b6064820152608401610459565b600882815481106107ba57634e487b7160e01b600052603260045260246000fd5b90600052602060002001549050919050565b6000818152600260205260408120546001600160a01b03168061034c5760405162461bcd60e51b815260206004820152602960248201527f4552433732313a206f776e657220717565727920666f72206e6f6e657869737460448201526832b73a103a37b5b2b760b91b6064820152608401610459565b60006001600160a01b0382166108ae5760405162461bcd60e51b815260206004820152602a60248201527f4552433732313a2062616c616e636520717565727920666f7220746865207a65604482015269726f206164647265737360b01b6064820152608401610459565b506001600160a01b031660009081526003602052604090205490565b60606001805461036190611923565b6001600160a01b0382163314156109325760405162461bcd60e51b815260206004820152601960248201527f4552433732313a20617070726f766520746f2063616c6c6572000000000000006044820152606401610459565b3360008181526005602090815260408083206001600160a01b03871680855290835292819020805460ff191686151590811790915590519081529192917f17307eab39ab6107e8899845ad3d59bd9653f200f220920489ca2b5937696c31910160405180910390a35050565b6109a83383610c65565b6109c45760405162461bcd60e51b815260040161045990611870565b6109d084848484610f07565b50505050565b6000818152600260205260409020546060906001600160a01b0316610a575760405162461bcd60e51b815260206004820152603160248201527f45524337323155524953746f726167653a2055524920717565727920666f72206044820152703737b732bc34b9ba32b73a103a37b5b2b760791b6064820152608401610459565b6000828152600c602052604090206002018054610a7390611923565b80601f0160208091040260200160405190810160405280929190818152602001828054610a9f90611923565b8015610aec5780601f10610ac157610100808354040283529160200191610aec565b820191906000526020600020905b815481529060010190602001808311610acf57829003601f168201915b50505050509050919050565b6000610b08600a80546001019055565b6000610b13600a5490565b9050610b1f3382610f3a565b600b54610b35906001600160a01b03168261047e565b604080516060810182528281523360208083019182528284018781526000868152600c8352949094208351815591516001830180546001600160a01b0319166001600160a01b039092169190911790559251805192939192610b9d9260028501920190611458565b5091949350505050565b60006001600160e01b031982166380ac58cd60e01b1480610bd857506001600160e01b03198216635b5e139f60e01b145b8061034c57506301ffc9a760e01b6001600160e01b031983161461034c565b600081815260046020526040902080546001600160a01b0319166001600160a01b0384169081179091558190610c2c826107cc565b6001600160a01b03167f8c5be1e5ebec7d5bd14f71427d1e84f3dd0314c0f7b2291e5b200ac8c7c3b92560405160405180910390a45050565b6000818152600260205260408120546001600160a01b0316610cde5760405162461bcd60e51b815260206004820152602c60248201527f4552433732313a206f70657261746f7220717565727920666f72206e6f6e657860448201526b34b9ba32b73a103a37b5b2b760a11b6064820152608401610459565b6000610ce9836107cc565b9050806001600160a01b0316846001600160a01b03161480610d245750836001600160a01b0316610d19846103e4565b6001600160a01b0316145b80610d5457506001600160a01b0380821660009081526005602090815260408083209388168352929052205460ff165b949350505050565b826001600160a01b0316610d6f826107cc565b6001600160a01b031614610dd75760405162461bcd60e51b815260206004820152602960248201527f4552433732313a207472616e73666572206f6620746f6b656e2074686174206960448201526839903737ba1037bbb760b91b6064820152608401610459565b6001600160a01b038216610e395760405162461bcd60e51b8152602060048201526024808201527f4552433732313a207472616e7366657220746f20746865207a65726f206164646044820152637265737360e01b6064820152608401610459565b610e44838383610f58565b610e4f600082610bf7565b6001600160a01b0383166000908152600360205260408120805460019290610e7890849061190c565b90915550506001600160a01b0382166000908152600360205260408120805460019290610ea69084906118f4565b909155505060008181526002602052604080822080546001600160a01b0319166001600160a01b0386811691821790925591518493918716917fddf252ad1be2c89b69c2b068fc378daa952ba7f163c4a11628f55a4df523b3ef91a4505050565b610f12848484610d5c565b610f1e84848484611010565b6109d05760405162461bcd60e51b81526004016104599061181e565b610f5482826040518060200160405280600081525061111d565b5050565b6001600160a01b038316610fb357610fae81600880546000838152600960205260408120829055600182018355919091527ff3f7a9fe364faab93b216da50a3214154f22a0a2b415b23a84c8169e8b636ee30155565b610fd6565b816001600160a01b0316836001600160a01b031614610fd657610fd68382611150565b6001600160a01b038216610fed5761058f816111ed565b826001600160a01b0316826001600160a01b03161461058f5761058f82826112c6565b60006001600160a01b0384163b1561111257604051630a85bd0160e11b81526001600160a01b0385169063150b7a02906110549033908990889088906004016117ce565b602060405180830381600087803b15801561106e57600080fd5b505af192505050801561109e575060408051601f3d908101601f1916820190925261109b91810190611709565b60015b6110f8573d8080156110cc576040519150601f19603f3d011682016040523d82523d6000602084013e6110d1565b606091505b5080516110f05760405162461bcd60e51b81526004016104599061181e565b805181602001fd5b6001600160e01b031916630a85bd0160e11b149050610d54565b506001949350505050565b611127838361130a565b6111346000848484611010565b61058f5760405162461bcd60e51b81526004016104599061181e565b6000600161115d84610843565b611167919061190c565b6000838152600760205260409020549091508082146111ba576001600160a01b03841660009081526006602090815260408083208584528252808320548484528184208190558352600790915290208190555b5060009182526007602090815260408084208490556001600160a01b039094168352600681528383209183525290812055565b6008546000906111ff9060019061190c565b6000838152600960205260408120546008805493945090928490811061123557634e487b7160e01b600052603260045260246000fd5b90600052602060002001549050806008838154811061126457634e487b7160e01b600052603260045260246000fd5b60009182526020808320909101929092558281526009909152604080822084905585825281205560088054806112aa57634e487b7160e01b600052603160045260246000fd5b6001900381819060005260206000200160009055905550505050565b60006112d183610843565b6001600160a01b039093166000908152600660209081526040808320868452825280832085905593825260079052919091209190915550565b6001600160a01b0382166113605760405162461bcd60e51b815260206004820181905260248201527f4552433732313a206d696e7420746f20746865207a65726f20616464726573736044820152606401610459565b6000818152600260205260409020546001600160a01b0316156113c55760405162461bcd60e51b815260206004820152601c60248201527f4552433732313a20746f6b656e20616c7265616479206d696e746564000000006044820152606401610459565b6113d160008383610f58565b6001600160a01b03821660009081526003602052604081208054600192906113fa9084906118f4565b909155505060008181526002602052604080822080546001600160a01b0319166001600160a01b03861690811790915590518392907fddf252ad1be2c89b69c2b068fc378daa952ba7f163c4a11628f55a4df523b3ef908290a45050565b82805461146490611923565b90600052602060002090601f01602090048101928261148657600085556114cc565b82601f1061149f57805160ff19168380011785556114cc565b828001600101855582156114cc579182015b828111156114cc5782518255916020019190600101906114b1565b506114d89291506114dc565b5090565b5b808211156114d857600081556001016114dd565b600067ffffffffffffffff8084111561150c5761150c611974565b604051601f8501601f19908116603f0116810190828211818310171561153457611534611974565b8160405280935085815286868601111561154d57600080fd5b858560208301376000602087830101525050509392505050565b80356001600160a01b038116811461157e57600080fd5b919050565b600060208284031215611594578081fd5b61159d82611567565b9392505050565b600080604083850312156115b6578081fd5b6115bf83611567565b91506115cd60208401611567565b90509250929050565b6000806000606084860312156115ea578081fd5b6115f384611567565b925061160160208501611567565b9150604084013590509250925092565b60008060008060808587031215611626578081fd5b61162f85611567565b935061163d60208601611567565b925060408501359150606085013567ffffffffffffffff81111561165f578182fd5b8501601f8101871361166f578182fd5b61167e878235602084016114f1565b91505092959194509250565b6000806040838503121561169c578182fd5b6116a583611567565b9150602083013580151581146116b9578182fd5b809150509250929050565b600080604083850312156116d6578182fd5b6116df83611567565b946020939093013593505050565b6000602082840312156116fe578081fd5b813561159d8161198a565b60006020828403121561171a578081fd5b815161159d8161198a565b600060208284031215611736578081fd5b813567ffffffffffffffff81111561174c578182fd5b8201601f8101841361175c578182fd5b610d54848235602084016114f1565b60006020828403121561177c578081fd5b5035919050565b60008151808452815b818110156117a85760208185018101518683018201520161178c565b818111156117b95782602083870101525b50601f01601f19169290920160200192915050565b6001600160a01b038581168252841660208201526040810183905260806060820181905260009061180190830184611783565b9695505050505050565b60208152600061159d6020830184611783565b60208082526032908201527f4552433732313a207472616e7366657220746f206e6f6e20455243373231526560408201527131b2b4bb32b91034b6b83632b6b2b73a32b960711b606082015260800190565b60208082526031908201527f4552433732313a207472616e736665722063616c6c6572206973206e6f74206f6040820152701ddb995c881b9bdc88185c1c1c9bdd9959607a1b606082015260800190565b8381526001600160a01b03831660208201526060604082018190526000906118eb90830184611783565b95945050505050565b600082198211156119075761190761195e565b500190565b60008282101561191e5761191e61195e565b500390565b600181811c9082168061193757607f821691505b6020821081141561195857634e487b7160e01b600052602260045260246000fd5b50919050565b634e487b7160e01b600052601160045260246000fd5b634e487b7160e01b600052604160045260246000fd5b6001600160e01b0319811681146119a057600080fd5b5056fea264697066735822122035116491eb1947ee2fdb7ddf5ce1dfc996ffd8a292041ba72079ef30bf517be864736f6c63430008040033",
  "linkReferences": {},
  "deployedLinkReferences": {}
}