{
  "contractName": "ArtMarketplace",
  "abi": [
    {
      "inputs": [
        {
          "internalType": "contract ArtToken",
          "name": "_token",
          "type": "address"
        }
      ],
      "stateMutability": "nonpayable",
      "type": "constructor"
    },
    {
      "anonymous": false,
      "inputs": [
        {
          "indexed": false,
          "internalType": "uint256",
          "name": "",
          "type": "uint256"
        },
        {
          "indexed": false,
          "internalType": "uint256",
          "name": "tokenId",
          "type": "uint256"
        },
        {
          "indexed": false,
          "internalType": "uint256",
          "name": "price",
          "type": "uint256"
        }
      ],
      "name": "itemAddedForSale",
      "type": "event"
    },
    {
      "anonymous": false,
      "inputs": [
        {
          "indexed": false,
          "internalType": "uint256",
          "name": "id",
          "type": "uint256"
        },
        {
          "indexed": false,
          "internalType": "address",
          "name": "buyer",
          "type": "address"
        },
        {
          "indexed": false,
          "internalType": "uint256",
          "name": "price",
          "type": "uint256"
        }
      ],
      "name": "itemSold",
      "type": "event"
    },
    {
      "inputs": [
        {
          "internalType": "uint256",
          "name": "",
          "type": "uint256"
        }
      ],
      "name": "activeItems",
      "outputs": [
        {
          "internalType": "bool",
          "name": "",
          "type": "bool"
        }
      ],
      "stateMutability": "view",
      "type": "function"
    },
    {
      "inputs": [
        {
          "internalType": "uint256",
          "name": "",
          "type": "uint256"
        }
      ],
      "name": "itemsForSale",
      "outputs": [
        {
          "internalType": "uint256",
          "name": "id",
          "type": "uint256"
        },
        {
          "internalType": "uint256",
          "name": "tokenId",
          "type": "uint256"
        },
        {
          "internalType": "address payable",
          "name": "seller",
          "type": "address"
        },
        {
          "internalType": "uint256",
          "name": "price",
          "type": "uint256"
        },
        {
          "internalType": "bool",
          "name": "isSold",
          "type": "bool"
        }
      ],
      "stateMutability": "view",
      "type": "function"
    },
    {
      "inputs": [
        {
          "internalType": "uint256",
          "name": "tokenId",
          "type": "uint256"
        },
        {
          "internalType": "uint256",
          "name": "price",
          "type": "uint256"
        }
      ],
      "name": "putItemForSale",
      "outputs": [
        {
          "internalType": "uint256",
          "name": "",
          "type": "uint256"
        }
      ],
      "stateMutability": "nonpayable",
      "type": "function"
    },
    {
      "inputs": [
        {
          "internalType": "uint256",
          "name": "id",
          "type": "uint256"
        }
      ],
      "name": "buyItem",
      "outputs": [],
      "stateMutability": "payable",
      "type": "function"
    },
    {
      "inputs": [],
      "name": "totalItemsForSale",
      "outputs": [
        {
          "internalType": "uint256",
          "name": "",
          "type": "uint256"
        }
      ],
      "stateMutability": "view",
      "type": "function"
    }
  ],
  "bytecode": "0x60806040523480156200001157600080fd5b50604051620012a6380380620012a68339818101604052810190620000379190620000fc565b806000806101000a81548173ffffffffffffffffffffffffffffffffffffffff021916908373ffffffffffffffffffffffffffffffffffffffff160217905550506200012e565b600080fd5b600073ffffffffffffffffffffffffffffffffffffffff82169050919050565b6000620000b08262000083565b9050919050565b6000620000c482620000a3565b9050919050565b620000d681620000b7565b8114620000e257600080fd5b50565b600081519050620000f681620000cb565b92915050565b6000602082840312156200011557620001146200007e565b5b60006200012584828501620000e5565b91505092915050565b611168806200013e6000396000f3fe60806040526004361061004a5760003560e01c8063092d0afc1461004f5780639c318c7b14610090578063e7fb74c7146100cd578063ec8120c9146100e9578063f4f3576414610114575b600080fd5b34801561005b57600080fd5b5061007660048036038101906100719190610bbb565b610151565b604051610087959493929190610c53565b60405180910390f35b34801561009c57600080fd5b506100b760048036038101906100b29190610bbb565b6101c4565b6040516100c49190610ca6565b60405180910390f35b6100e760048036038101906100e29190610bbb565b6101e4565b005b3480156100f557600080fd5b506100fe61075c565b60405161010b9190610cc1565b60405180910390f35b34801561012057600080fd5b5061013b60048036038101906101369190610cdc565b610769565b6040516101489190610cc1565b60405180910390f35b6001818154811061016157600080fd5b90600052602060002090600502016000915090508060000154908060010154908060020160009054906101000a900473ffffffffffffffffffffffffffffffffffffffff16908060030154908060040160009054906101000a900460ff16905085565b60026020528060005260406000206000915054906101000a900460ff1681565b806001805490508110801561021d5750806001828154811061020957610208610d1c565b5b906000526020600020906005020160000154145b61025c576040517f08c379a000000000000000000000000000000000000000000000000000000000815260040161025390610da8565b60405180910390fd5b816001818154811061027157610270610d1c565b5b906000526020600020906005020160040160009054906101000a900460ff16156102d0576040517f08c379a00000000000000000000000000000000000000000000000000000000081526004016102c790610e14565b60405180910390fd5b600183815481106102e4576102e3610d1c565b5b9060005260206000209060050201600101543073ffffffffffffffffffffffffffffffffffffffff1660008054906101000a900473ffffffffffffffffffffffffffffffffffffffff1673ffffffffffffffffffffffffffffffffffffffff1663081812fc836040518263ffffffff1660e01b81526004016103669190610cc1565b602060405180830381865afa158015610383573d6000803e3d6000fd5b505050506040513d601f19601f820116820180604052508101906103a79190610e72565b73ffffffffffffffffffffffffffffffffffffffff16146103fd576040517f08c379a00000000000000000000000000000000000000000000000000000000081526004016103f490610eeb565b60405180910390fd5b6001848154811061041157610410610d1c565b5b906000526020600020906005020160030154341015610465576040517f08c379a000000000000000000000000000000000000000000000000000000000815260040161045c90610f57565b60405180910390fd5b6001848154811061047957610478610d1c565b5b906000526020600020906005020160020160009054906101000a900473ffffffffffffffffffffffffffffffffffffffff1673ffffffffffffffffffffffffffffffffffffffff163373ffffffffffffffffffffffffffffffffffffffff1614156104e357600080fd5b60018085815481106104f8576104f7610d1c565b5b906000526020600020906005020160040160006101000a81548160ff0219169083151502179055506000600260006001878154811061053a57610539610d1c565b5b906000526020600020906005020160010154815260200190815260200160002060006101000a81548160ff02191690831515021790555060008054906101000a900473ffffffffffffffffffffffffffffffffffffffff1673ffffffffffffffffffffffffffffffffffffffff1663405b1d72600186815481106105c1576105c0610d1c565b5b906000526020600020906005020160020160009054906101000a900473ffffffffffffffffffffffffffffffffffffffff16336001888154811061060857610607610d1c565b5b9060005260206000209060050201600101546040518463ffffffff1660e01b815260040161063893929190610f86565b600060405180830381600087803b15801561065257600080fd5b505af1158015610666573d6000803e3d6000fd5b505050506001848154811061067e5761067d610d1c565b5b906000526020600020906005020160020160009054906101000a900473ffffffffffffffffffffffffffffffffffffffff1673ffffffffffffffffffffffffffffffffffffffff166108fc349081150290604051600060405180830381858888f193505050501580156106f5573d6000803e3d6000fd5b507f8164c6f8917e418c49813e4586897c7067de5a886aa1bea980cd11fa57d4826484336001878154811061072d5761072c610d1c565b5b90600052602060002090600502016003015460405161074e93929190610fbd565b60405180910390a150505050565b6000600180549050905090565b6000823373ffffffffffffffffffffffffffffffffffffffff1660008054906101000a900473ffffffffffffffffffffffffffffffffffffffff1673ffffffffffffffffffffffffffffffffffffffff16636352211e836040518263ffffffff1660e01b81526004016107dc9190610cc1565b602060405180830381865afa1580156107f9573d6000803e3d6000fd5b505050506040513d601f19601f8201168201806040525081019061081d9190610e72565b73ffffffffffffffffffffffffffffffffffffffff1614610873576040517f08c379a000000000000000000000000000000000000000000000000000000000815260040161086a90611040565b60405180910390fd5b833073ffffffffffffffffffffffffffffffffffffffff1660008054906101000a900473ffffffffffffffffffffffffffffffffffffffff1673ffffffffffffffffffffffffffffffffffffffff1663081812fc836040518263ffffffff1660e01b81526004016108e49190610cc1565b602060405180830381865afa158015610901573d6000803e3d6000fd5b505050506040513d601f19601f820116820180604052508101906109259190610e72565b73ffffffffffffffffffffffffffffffffffffffff161461097b576040517f08c379a000000000000000000000000000000000000000000000000000000000815260040161097290610eeb565b60405180910390fd5b6002600086815260200190815260200160002060009054906101000a900460ff16156109dc576040517f08c379a00000000000000000000000000000000000000000000000000000000081526004016109d3906110ac565b60405180910390fd5b6000600180549050905060016040518060a001604052808381526020018881526020013373ffffffffffffffffffffffffffffffffffffffff168152602001878152602001600015158152509080600181540180825580915050600190039060005260206000209060050201600090919091909150600082015181600001556020820151816001015560408201518160020160006101000a81548173ffffffffffffffffffffffffffffffffffffffff021916908373ffffffffffffffffffffffffffffffffffffffff1602179055506060820151816003015560808201518160040160006101000a81548160ff021916908315150217905550505060016002600088815260200190815260200160002060006101000a81548160ff0219169083151502179055508060018281548110610b1957610b18610d1c565b5b90600052602060002090600502016000015414610b3957610b386110cc565b5b7fafd8780f802588de8705083b0f6a33ac59b8d0228c80f9babe0549c1621c33f8818787604051610b6c939291906110fb565b60405180910390a180935050505092915050565b600080fd5b6000819050919050565b610b9881610b85565b8114610ba357600080fd5b50565b600081359050610bb581610b8f565b92915050565b600060208284031215610bd157610bd0610b80565b5b6000610bdf84828501610ba6565b91505092915050565b610bf181610b85565b82525050565b600073ffffffffffffffffffffffffffffffffffffffff82169050919050565b6000610c2282610bf7565b9050919050565b610c3281610c17565b82525050565b60008115159050919050565b610c4d81610c38565b82525050565b600060a082019050610c686000830188610be8565b610c756020830187610be8565b610c826040830186610c29565b610c8f6060830185610be8565b610c9c6080830184610c44565b9695505050505050565b6000602082019050610cbb6000830184610c44565b92915050565b6000602082019050610cd66000830184610be8565b92915050565b60008060408385031215610cf357610cf2610b80565b5b6000610d0185828601610ba6565b9250506020610d1285828601610ba6565b9150509250929050565b7f4e487b7100000000000000000000000000000000000000000000000000000000600052603260045260246000fd5b600082825260208201905092915050565b7f436f756c64206e6f742066696e64206974656d00000000000000000000000000600082015250565b6000610d92601383610d4b565b9150610d9d82610d5c565b602082019050919050565b60006020820190508181036000830152610dc181610d85565b9050919050565b7f4974656d20697320616c726561647920736f6c64000000000000000000000000600082015250565b6000610dfe601483610d4b565b9150610e0982610dc8565b602082019050919050565b60006020820190508181036000830152610e2d81610df1565b9050919050565b6000610e3f82610bf7565b9050919050565b610e4f81610e34565b8114610e5a57600080fd5b50565b600081519050610e6c81610e46565b92915050565b600060208284031215610e8857610e87610b80565b5b6000610e9684828501610e5d565b91505092915050565b7f4d61726b6574206973206e6f7420617070726f76656400000000000000000000600082015250565b6000610ed5601683610d4b565b9150610ee082610e9f565b602082019050919050565b60006020820190508181036000830152610f0481610ec8565b9050919050565b7f4e6f7420656e6f7567682066756e64732073656e740000000000000000000000600082015250565b6000610f41601583610d4b565b9150610f4c82610f0b565b602082019050919050565b60006020820190508181036000830152610f7081610f34565b9050919050565b610f8081610e34565b82525050565b6000606082019050610f9b6000830186610c29565b610fa86020830185610f77565b610fb56040830184610be8565b949350505050565b6000606082019050610fd26000830186610be8565b610fdf6020830185610f77565b610fec6040830184610be8565b949350505050565b7f53656e64657220646f6573206e6f74206f776e20746865206974656d00000000600082015250565b600061102a601c83610d4b565b915061103582610ff4565b602082019050919050565b600060208201905081810360008301526110598161101d565b9050919050565b7f4974656d20697320616c726561647920757020666f722073616c650000000000600082015250565b6000611096601b83610d4b565b91506110a182611060565b602082019050919050565b600060208201905081810360008301526110c581611089565b9050919050565b7f4e487b7100000000000000000000000000000000000000000000000000000000600052600160045260246000fd5b60006060820190506111106000830186610be8565b61111d6020830185610be8565b61112a6040830184610be8565b94935050505056fea26469706673582212207b162d4a4e09bf04b96c6404f31dc03ff2655b69c0481c75408ab73b2d05c79d64736f6c634300080b0033",
  "immutableReferences": {},
  "source": "pragma solidity ^0.8.0;\r\n\r\nimport \"./ArtToken.sol\";\r\n\r\ncontract ArtMarketplace {\r\n    ArtToken token;\r\n\r\n    struct ItemForSale {\r\n        uint256 id;\r\n        uint256 tokenId;\r\n        address payable seller;\r\n        uint256 price;\r\n        bool isSold;\r\n    }\r\n\r\n    ItemForSale[] public itemsForSale;\r\n    mapping(uint256 => bool) public activeItems; // tokenId => active ?\r\n\r\n    event itemAddedForSale(uint256, uint256 tokenId, uint256 price);\r\n    event itemSold(uint256 id, address buyer, uint256 price);\r\n\r\n    constructor(ArtToken _token){\r\n        token = _token;\r\n    }\r\n\r\n    modifier HasTransferApproval(uint256 tokenId){\r\n        require(token.getApproved(tokenId) == address(this), \"Market is not approved\");\r\n        _;\r\n    }\r\n\r\n    modifier ItemExists(uint256 id){\r\n        require(id < itemsForSale.length && itemsForSale[id].id == id, \"Could not find item\");\r\n        _;\r\n    }\r\n\r\n    modifier IsForSale(uint256 id){\r\n        require(!itemsForSale[id].isSold, \"Item is already sold\");\r\n        _;\r\n    }\r\n\r\n    function putItemForSale(uint256 tokenId, uint256 price)\r\n        OnlyItemOwner(tokenId)\r\n        HasTransferApproval(tokenId)\r\n        external\r\n        returns (uint256){\r\n            require(!activeItems[tokenId], \"Item is already up for sale\");\r\n\r\n            uint256 newItemId = itemsForSale.length;\r\n            itemsForSale.push(ItemForSale({\r\n                id: newItemId,\r\n                tokenId: tokenId,\r\n                seller: payable(msg.sender),\r\n                price: price,\r\n                isSold: false \r\n            }));\r\n            activeItems[tokenId] = true;\r\n\r\n            assert(itemsForSale[newItemId].id == newItemId);\r\n            emit itemAddedForSale(newItemId, tokenId, price);\r\n            return newItemId;\r\n        }\r\n\r\n    function buyItem(uint256 id)\r\n        ItemExists(id)\r\n        IsForSale(id)\r\n        HasTransferApproval(itemsForSale[id].tokenId)\r\n        payable \r\n        external {\r\n            require(msg.value >= itemsForSale[id].price, \"Not enough funds sent\");\r\n            require(msg.sender != itemsForSale[id].seller);\r\n\r\n            itemsForSale[id].isSold = true;\r\n            activeItems[itemsForSale[id].tokenId] = false;\r\n            token.safeTransferForm(itemsForSale[id].seller, msg.sender, itemsForSale[id].tokenId);\r\n            itemsForSale[id].seller.transfer(msg.value);\r\n\r\n            emit itemSold(id, msg.sender, itemsForSale[id].price);\r\n        }\r\n\r\n    function totalItemsForSale() external view returns(uint256){\r\n        return itemsForSale.length;\r\n    }\r\n\r\n    modifier OnlyItemOwner(uint256 tokenId){\r\n        require(token.ownerOf(tokenId) == msg.sender, \"Sender does not own the item\");\r\n        _;\r\n    }\r\n}",
  "sourcePath": "C:\\Users\\sheha\\OneDrive\\Documents\\GitHub\\nft-marketplace-app\\contracts\\ArtMarketplace.sol",
  "compiler": {
    "name": "solc",
    "version": "0.8.11+commit.d7f03943.Emscripten.clang"
  },
  "schemaVersion": "3.4.4",
  "updatedAt": "2022-02-10T04:05:01.850Z",
  "devdoc": {
    "kind": "dev",
    "methods": {},
    "version": 1
  },
  "userdoc": {
    "kind": "user",
    "methods": {},
    "version": 1
  }
}